{
  "contractName": "MyLendingContract",
  "abi": [
    {
      "inputs": [
        {
          "internalType": "address",
          "name": "",
          "type": "address"
        }
      ],
      "name": "balances",
      "outputs": [
        {
          "internalType": "uint256",
          "name": "",
          "type": "uint256"
        }
      ],
      "stateMutability": "view",
      "type": "function"
    },
    {
      "inputs": [
        {
          "internalType": "uint256",
          "name": "amount",
          "type": "uint256"
        }
      ],
      "name": "deposit",
      "outputs": [],
      "stateMutability": "nonpayable",
      "type": "function"
    },
    {
      "inputs": [
        {
          "internalType": "uint256",
          "name": "amount",
          "type": "uint256"
        }
      ],
      "name": "borrow",
      "outputs": [],
      "stateMutability": "nonpayable",
      "type": "function"
    }
  ],
  "bytecode": "0x608060405234801561000f575f80fd5b506105248061001d5f395ff3fe608060405234801561000f575f80fd5b506004361061003f575f3560e01c806327e235e314610043578063b6b55f2514610073578063c5ebeaec1461008f575b5f80fd5b61005d600480360381019061005891906102ca565b6100ab565b60405161006a919061030d565b60405180910390f35b61008d60048036038101906100889190610350565b6100bf565b005b6100a960048036038101906100a49190610350565b610156565b005b5f602052805f5260405f205f915090505481565b5f8111610101576040517f08c379a00000000000000000000000000000000000000000000000000000000081526004016100f8906103d5565b60405180910390fd5b805f803373ffffffffffffffffffffffffffffffffffffffff1673ffffffffffffffffffffffffffffffffffffffff1681526020019081526020015f205f82825461014c9190610420565b9250508190555050565b5f8111610198576040517f08c379a000000000000000000000000000000000000000000000000000000000815260040161018f906103d5565b60405180910390fd5b805f803373ffffffffffffffffffffffffffffffffffffffff1673ffffffffffffffffffffffffffffffffffffffff1681526020019081526020015f20541015610217576040517f08c379a000000000000000000000000000000000000000000000000000000000815260040161020e9061049d565b60405180910390fd5b805f803373ffffffffffffffffffffffffffffffffffffffff1673ffffffffffffffffffffffffffffffffffffffff1681526020019081526020015f205f82825461026291906104bb565b9250508190555050565b5f80fd5b5f73ffffffffffffffffffffffffffffffffffffffff82169050919050565b5f61029982610270565b9050919050565b6102a98161028f565b81146102b3575f80fd5b50565b5f813590506102c4816102a0565b92915050565b5f602082840312156102df576102de61026c565b5b5f6102ec848285016102b6565b91505092915050565b5f819050919050565b610307816102f5565b82525050565b5f6020820190506103205f8301846102fe565b92915050565b61032f816102f5565b8114610339575f80fd5b50565b5f8135905061034a81610326565b92915050565b5f602082840312156103655761036461026c565b5b5f6103728482850161033c565b91505092915050565b5f82825260208201905092915050565b7f416d6f756e74206d7573742062652067726561746572207468616e207a65726f5f82015250565b5f6103bf60208361037b565b91506103ca8261038b565b602082019050919050565b5f6020820190508181035f8301526103ec816103b3565b9050919050565b7f4e487b71000000000000000000000000000000000000000000000000000000005f52601160045260245ffd5b5f61042a826102f5565b9150610435836102f5565b925082820190508082111561044d5761044c6103f3565b5b92915050565b7f4e6f7420656e6f7567682062616c616e636520746f20626f72726f77000000005f82015250565b5f610487601c8361037b565b915061049282610453565b602082019050919050565b5f6020820190508181035f8301526104b48161047b565b9050919050565b5f6104c5826102f5565b91506104d0836102f5565b92508282039050818111156104e8576104e76103f3565b5b9291505056fea264697066735822122090b8bb6f5dd0448ecdad9132663db1efbf4e694d51633b6aea86f40d9de283ac64736f6c63430008150033",
  "immutableReferences": {},
  "source": "// SPDX-License-Identifier: MIT\r\npragma solidity ^0.8.0;\r\n\r\ncontract MyLendingContract {\r\n    mapping(address => uint256) public balances;\r\n\r\n    function deposit(uint256 amount) external {\r\n        require(amount > 0, \"Amount must be greater than zero\");\r\n        balances[msg.sender] += amount;\r\n    }\r\n\r\n    function borrow(uint256 amount) external {\r\n        require(amount > 0, \"Amount must be greater than zero\");\r\n        require(balances[msg.sender] >= amount, \"Not enough balance to borrow\");\r\n        balances[msg.sender] -= amount;\r\n    }\r\n}",
  "sourcePath": "C:\\Users\\angel\\lending-contract\\contracts\\MyLendingContract.sol",
  "compiler": {
    "name": "solc",
    "version": "0.8.21+commit.d9974bed.Emscripten.clang"
  },
  "schemaVersion": "3.4.16",
  "updatedAt": "2023-09-26T17:16:20.247Z",
  "devdoc": {
    "kind": "dev",
    "methods": {},
    "version": 1
  },
  "userdoc": {
    "kind": "user",
    "methods": {},
    "version": 1
  }
}